{
  "abi": [
    {
      "inputs": [
        {
          "internalType": "contract IBonsaiRelay",
          "name": "bonsaiRelay",
          "type": "address"
        },
        {
          "internalType": "bytes32",
          "name": "_fibImageId",
          "type": "bytes32"
        }
      ],
      "stateMutability": "nonpayable",
      "type": "constructor"
    },
    {
      "inputs": [
        {
          "internalType": "contract IBonsaiRelay",
          "name": "expected",
          "type": "address"
        },
        {
          "internalType": "contract IBonsaiRelay",
          "name": "found",
          "type": "address"
        }
      ],
      "name": "UnauthorizedCallbackSource",
      "type": "error"
    },
    {
      "inputs": [
        {
          "internalType": "bytes32",
          "name": "expected",
          "type": "bytes32"
        },
        {
          "internalType": "bytes32",
          "name": "found",
          "type": "bytes32"
        }
      ],
      "name": "UnexpectedImageId",
      "type": "error"
    },
    {
      "anonymous": false,
      "inputs": [
        {
          "indexed": true,
          "internalType": "uint256",
          "name": "n",
          "type": "uint256"
        },
        {
          "indexed": false,
          "internalType": "uint256",
          "name": "result",
          "type": "uint256"
        }
      ],
      "name": "CalculateFibonacciCallback",
      "type": "event"
    },
    {
      "inputs": [],
      "name": "bonsaiLowLevelCallbackReceiver",
      "outputs": [
        {
          "internalType": "bytes",
          "name": "",
          "type": "bytes"
        }
      ],
      "stateMutability": "nonpayable",
      "type": "function"
    },
    {
      "inputs": [],
      "name": "bonsaiRelay",
      "outputs": [
        {
          "internalType": "contract IBonsaiRelay",
          "name": "",
          "type": "address"
        }
      ],
      "stateMutability": "view",
      "type": "function"
    },
    {
      "inputs": [
        {
          "internalType": "uint256",
          "name": "n",
          "type": "uint256"
        }
      ],
      "name": "calculateFibonacci",
      "outputs": [],
      "stateMutability": "nonpayable",
      "type": "function"
    },
    {
      "inputs": [],
      "name": "fibImageId",
      "outputs": [
        {
          "internalType": "bytes32",
          "name": "",
          "type": "bytes32"
        }
      ],
      "stateMutability": "view",
      "type": "function"
    },
    {
      "inputs": [
        {
          "internalType": "uint256",
          "name": "n",
          "type": "uint256"
        }
      ],
      "name": "fibonacci",
      "outputs": [
        {
          "internalType": "uint256",
          "name": "",
          "type": "uint256"
        }
      ],
      "stateMutability": "view",
      "type": "function"
    },
    {
      "inputs": [
        {
          "internalType": "uint256",
          "name": "",
          "type": "uint256"
        }
      ],
      "name": "fibonacciCache",
      "outputs": [
        {
          "internalType": "uint256",
          "name": "",
          "type": "uint256"
        }
      ],
      "stateMutability": "view",
      "type": "function"
    }
  ],
  "bytecode": {
    "object": "0x60c060405234801561001057600080fd5b5060405161067138038061067183398101604081905261002f91610045565b6001600160a01b0390911660805260a05261007f565b6000806040838503121561005857600080fd5b82516001600160a01b038116811461006f57600080fd5b6020939093015192949293505050565b60805160a0516105ab6100c660003960008181606c015281816101d70152610383015260008181610103015281816101a8015281816102ae01526102eb01526105ab6000f3fe608060405234801561001057600080fd5b50600436106100625760003560e01c806313234edc1461006757806361047ff4146100a15780636b370a4c146100b457806399119819146100c9578063ae4ddde9146100e9578063e70ffd4b146100fe575b600080fd5b61008e7f000000000000000000000000000000000000000000000000000000000000000081565b6040519081526020015b60405180910390f35b61008e6100af36600461041e565b61013d565b6100c76100c236600461041e565b6101a6565b005b61008e6100d736600461041e565b60006020819052908152604090205481565b6100f161027c565b604051610098919061047d565b6101257f000000000000000000000000000000000000000000000000000000000000000081565b6040516001600160a01b039091168152602001610098565b6000818152602081905260408120548082036101a05760405162461bcd60e51b815260206004820152601c60248201527f76616c7565206e6f7420617661696c61626c6520696e2063616368650000000060448201526064015b60405180910390fd5b92915050565b7f00000000000000000000000000000000000000000000000000000000000000006001600160a01b031663e80802a27f00000000000000000000000000000000000000000000000000000000000000008360405160200161020991815260200190565b60408051601f19818403018152908290526001600160e01b031960e085901b1682526102479291309063ae4ddde960e01b9061753090600401610497565b600060405180830381600087803b15801561026157600080fd5b505af1158015610275573d6000803e3d6000fd5b5050505050565b60606102866102a3565b61029e610291610323565b610299610353565b61037f565b905090565b336001600160a01b037f00000000000000000000000000000000000000000000000000000000000000001681146103205760405163432e033760e11b81526001600160a01b037f00000000000000000000000000000000000000000000000000000000000000008116600483015282166024820152604401610197565b50565b36600061032e6102a3565b600060043661033e6020826104ea565b9261034b9392919061050b565b915091509091565b600061035d6102a3565b60003661036b6020826104ea565b61037692829061050b565b61029e91610535565b60607f000000000000000000000000000000000000000000000000000000000000000082146103ad57600080fd5b6000806103bc85870187610553565b91509150817fa457fb5f6917695b86f89831bb36063cb21e8d2f4d103023fbbdb5872b911a91826040516103f291815260200190565b60405180910390a260009182526020828152604080842092909255815192835282019052949350505050565b60006020828403121561043057600080fd5b5035919050565b6000815180845260005b8181101561045d57602081850181015186830182015201610441565b506000602082860101526020601f19601f83011685010191505092915050565b6020815260006104906020830184610437565b9392505050565b85815260a0602082015260006104b060a0830187610437565b6001600160a01b03959095166040830152506001600160e01b031992909216606083015267ffffffffffffffff1660809091015292915050565b818103818111156101a057634e487b7160e01b600052601160045260246000fd5b6000808585111561051b57600080fd5b8386111561052857600080fd5b5050820193919092039150565b803560208310156101a057600019602084900360031b1b1692915050565b6000806040838503121561056657600080fd5b5050803592602090910135915056fea2646970667358221220ff12e714fe0b1af04a008262a27bef041c367fda64f72faab25f967c0a188e0964736f6c63430008140033",
    "linkReferences": {}
  },
  "methodIdentifiers": {
    "bonsaiLowLevelCallbackReceiver()": "ae4ddde9",
    "bonsaiRelay()": "e70ffd4b",
    "calculateFibonacci(uint256)": "6b370a4c",
    "fibImageId()": "13234edc",
    "fibonacci(uint256)": "61047ff4",
    "fibonacciCache(uint256)": "99119819"
  },
  "id": 1
}