{
  "abi": [
    {
      "inputs": [
        {
          "internalType": "bytes",
          "name": "input",
          "type": "bytes"
        }
      ],
      "name": "toHexString",
      "outputs": [
        {
          "internalType": "string",
          "name": "",
          "type": "string"
        }
      ],
      "stateMutability": "pure",
      "type": "function"
    }
  ],
  "bytecode": {
    "object": "0x61043961003a600b82828239805160001a60731461002d57634e487b7160e01b600052600060045260246000fd5b30600052607381538281f3fe73000000000000000000000000000000000000000030146080604052600436106100355760003560e01c8063c93727931461003a575b600080fd5b61004d61004836600461025a565b610063565b60405161005a919061030b565b60405180910390f35b60606001610074600260001961036f565b61007e9190610391565b82511061008a57600080fd5b81516f181899199a1a9b1b9c1cb0b131b232b360811b906000906100af9060026103aa565b6100ba9060026103c1565b67ffffffffffffffff8111156100d2576100d2610244565b6040519080825280601f01601f1916602001820160405280156100fc576020820181803683370190505b509050600360fc1b81600081518110610117576101176103d4565b60200101906001600160f81b031916908160001a905350600f60fb1b81600181518110610146576101466103d4565b60200101906001600160f81b031916908160001a905350835160029060005b81811015610239576000878281518110610181576101816103d4565b016020015160f881901c9150869060fc1c601081106101a2576101a26103d4565b1a60f81b85856101b1816103ea565b9650815181106101c3576101c36103d4565b60200101906001600160f81b031916908160001a9053508581600f16601081106101ef576101ef6103d4565b1a60f81b85856101fe816103ea565b965081518110610210576102106103d4565b60200101906001600160f81b031916908160001a9053505080610232906103ea565b9050610165565b509195945050505050565b634e487b7160e01b600052604160045260246000fd5b60006020828403121561026c57600080fd5b813567ffffffffffffffff8082111561028457600080fd5b818401915084601f83011261029857600080fd5b8135818111156102aa576102aa610244565b604051601f8201601f19908116603f011681019083821181831017156102d2576102d2610244565b816040528281528760208487010111156102eb57600080fd5b826020860160208301376000928101602001929092525095945050505050565b600060208083528351808285015260005b818110156103385785810183015185820160400152820161031c565b506000604082860101526040601f19601f8301168501019250505092915050565b634e487b7160e01b600052601160045260246000fd5b60008261038c57634e487b7160e01b600052601260045260246000fd5b500490565b818103818111156103a4576103a4610359565b92915050565b80820281158282048414176103a4576103a4610359565b808201808211156103a4576103a4610359565b634e487b7160e01b600052603260045260246000fd5b6000600182016103fc576103fc610359565b506001019056fea26469706673582212206c14e1d8d600d780cb4101d238ffee0e6a88cb210d3eefe0fa782273daa1feb764736f6c63430008140033",
    "linkReferences": {}
  },
  "methodIdentifiers": {
    "toHexString(bytes)": "c9372793"
  },
  "id": 20
}