{
  "abi": [
    {
      "inputs": [
        {
          "internalType": "uint256",
          "name": "expectedChainId",
          "type": "uint256"
        }
      ],
      "stateMutability": "nonpayable",
      "type": "constructor"
    },
    {
      "anonymous": false,
      "inputs": [
        {
          "indexed": false,
          "internalType": "address",
          "name": "account",
          "type": "address"
        },
        {
          "indexed": false,
          "internalType": "bytes32",
          "name": "imageId",
          "type": "bytes32"
        },
        {
          "indexed": false,
          "internalType": "bytes",
          "name": "input",
          "type": "bytes"
        },
        {
          "indexed": false,
          "internalType": "address",
          "name": "callbackContract",
          "type": "address"
        },
        {
          "indexed": false,
          "internalType": "bytes4",
          "name": "functionSelector",
          "type": "bytes4"
        },
        {
          "indexed": false,
          "internalType": "uint64",
          "name": "gasLimit",
          "type": "uint64"
        }
      ],
      "name": "CallbackRequest",
      "type": "event"
    },
    {
      "inputs": [
        {
          "internalType": "bytes32",
          "name": "",
          "type": "bytes32"
        },
        {
          "internalType": "bytes",
          "name": "",
          "type": "bytes"
        },
        {
          "components": [
            {
              "internalType": "bytes",
              "name": "seal",
              "type": "bytes"
            },
            {
              "internalType": "bytes32",
              "name": "postStateDigest",
              "type": "bytes32"
            }
          ],
          "internalType": "struct CallbackAuthorization",
          "name": "auth",
          "type": "tuple"
        }
      ],
      "name": "callbackIsAuthorized",
      "outputs": [
        {
          "internalType": "bool",
          "name": "",
          "type": "bool"
        }
      ],
      "stateMutability": "pure",
      "type": "function"
    },
    {
      "inputs": [
        {
          "components": [
            {
              "components": [
                {
                  "internalType": "bytes",
                  "name": "seal",
                  "type": "bytes"
                },
                {
                  "internalType": "bytes32",
                  "name": "postStateDigest",
                  "type": "bytes32"
                }
              ],
              "internalType": "struct CallbackAuthorization",
              "name": "auth",
              "type": "tuple"
            },
            {
              "internalType": "address",
              "name": "callbackContract",
              "type": "address"
            },
            {
              "internalType": "bytes",
              "name": "payload",
              "type": "bytes"
            },
            {
              "internalType": "uint64",
              "name": "gasLimit",
              "type": "uint64"
            }
          ],
          "internalType": "struct Callback",
          "name": "callback",
          "type": "tuple"
        }
      ],
      "name": "invokeCallback",
      "outputs": [],
      "stateMutability": "nonpayable",
      "type": "function"
    },
    {
      "inputs": [
        {
          "components": [
            {
              "components": [
                {
                  "internalType": "bytes",
                  "name": "seal",
                  "type": "bytes"
                },
                {
                  "internalType": "bytes32",
                  "name": "postStateDigest",
                  "type": "bytes32"
                }
              ],
              "internalType": "struct CallbackAuthorization",
              "name": "auth",
              "type": "tuple"
            },
            {
              "internalType": "address",
              "name": "callbackContract",
              "type": "address"
            },
            {
              "internalType": "bytes",
              "name": "payload",
              "type": "bytes"
            },
            {
              "internalType": "uint64",
              "name": "gasLimit",
              "type": "uint64"
            }
          ],
          "internalType": "struct Callback[]",
          "name": "callbacks",
          "type": "tuple[]"
        }
      ],
      "name": "invokeCallbacks",
      "outputs": [
        {
          "internalType": "bool[]",
          "name": "invocationResults",
          "type": "bool[]"
        }
      ],
      "stateMutability": "nonpayable",
      "type": "function"
    },
    {
      "inputs": [
        {
          "internalType": "bytes",
          "name": "payload",
          "type": "bytes"
        }
      ],
      "name": "parsePayload",
      "outputs": [
        {
          "internalType": "bytes32",
          "name": "",
          "type": "bytes32"
        },
        {
          "internalType": "bytes",
          "name": "",
          "type": "bytes"
        }
      ],
      "stateMutability": "pure",
      "type": "function"
    },
    {
      "inputs": [
        {
          "internalType": "bytes32",
          "name": "imageId",
          "type": "bytes32"
        },
        {
          "internalType": "bytes",
          "name": "input",
          "type": "bytes"
        },
        {
          "internalType": "address",
          "name": "callbackContract",
          "type": "address"
        },
        {
          "internalType": "bytes4",
          "name": "functionSelector",
          "type": "bytes4"
        },
        {
          "internalType": "uint64",
          "name": "gasLimit",
          "type": "uint64"
        }
      ],
      "name": "requestCallback",
      "outputs": [],
      "stateMutability": "nonpayable",
      "type": "function"
    }
  ],
  "bytecode": {
    "object": "0x608060405234801561001057600080fd5b50604051610a9d380380610a9d83398101604081905261002f916100c1565b8046146100bb5760405162461bcd60e51b815260206004820152604a60248201527f636861696e204944206d69736d617463682e2061726520796f75206465706c6f60448201527f79696e6720426f6e7361695465737452656c617920746865206578706563746560648201526964206e6574776f726b3f60b01b608482015260a40160405180910390fd5b506100da565b6000602082840312156100d357600080fd5b5051919050565b6109b4806100e96000396000f3fe608060405234801561001057600080fd5b50600436106100575760003560e01c806313ef14121461005c57806359611e671461008557806383a19d39146100a8578063df055cf1146100bd578063e80802a2146100df575b600080fd5b61006f61006a36600461044c565b6100f2565b60405161007c91906104c1565b60405180910390f35b610098610093366004610550565b61028e565b604051901515815260200161007c565b6100bb6100b63660046105c8565b6102b4565b005b6100d06100cb36600461060a565b6103a9565b60405161007c93929190610675565b6100bb6100ed3660046106c3565b610401565b60608167ffffffffffffffff81111561010d5761010d610750565b604051908082528060200260200182016040528015610136578160200160208202803683370190505b50905060005b82811015610287573684848381811061015757610157610766565b9050602002810190610169919061077c565b90506000368161017f6100cb604086018661079c565b9194509250905061019683838361009388806107e3565b6101bb5760405162461bcd60e51b81526004016101b2906107f9565b60405180910390fd5b6101cb604085016020860161084d565b6001600160a01b03166101e46080860160608701610868565b67ffffffffffffffff166101fb604087018761079c565b604051610209929190610883565b60006040518083038160008787f1925050503d8060008114610247576040519150601f19603f3d011682016040523d82523d6000602084013e61024c565b606091505b505086868151811061026057610260610766565b6020026020010181151515158152505050505050808061027f906108a9565b91505061013c565b5092915050565b600061029a828061079c565b15905080156102ab57506020820135155b95945050505050565b600036816102c86100cb604086018661079c565b919450925090506102df83838361009388806107e3565b6102fb5760405162461bcd60e51b81526004016101b2906107f9565b60008061030e604087016020880161084d565b6001600160a01b03166103276080880160608901610868565b67ffffffffffffffff1661033e604089018961079c565b60405161034c929190610883565b60006040518083038160008787f1925050503d806000811461038a576040519150601f19603f3d011682016040523d82523d6000602084013e61038f565b606091505b5091509150816103a157805160208201fd5b505050505050565b600036818085856103bb6020826108c2565b6103c69282906108db565b6103cf91610905565b9050366000876004886103e36020826108c2565b926103f0939291906108db565b939650945091925050509250925092565b7f105b7c9dbbc865638cd7873341700bcf4c62dfc9a4f221425b56fde3408f6a853387878787878760405161043c9796959493929190610923565b60405180910390a1505050505050565b6000806020838503121561045f57600080fd5b823567ffffffffffffffff8082111561047757600080fd5b818501915085601f83011261048b57600080fd5b81358181111561049a57600080fd5b8660208260051b85010111156104af57600080fd5b60209290920196919550909350505050565b6020808252825182820181905260009190848201906040850190845b818110156104fb5783511515835292840192918401916001016104dd565b50909695505050505050565b60008083601f84011261051957600080fd5b50813567ffffffffffffffff81111561053157600080fd5b60208301915083602082850101111561054957600080fd5b9250929050565b6000806000806060858703121561056657600080fd5b84359350602085013567ffffffffffffffff8082111561058557600080fd5b61059188838901610507565b909550935060408701359150808211156105aa57600080fd5b508501604081880312156105bd57600080fd5b939692955090935050565b6000602082840312156105da57600080fd5b813567ffffffffffffffff8111156105f157600080fd5b82016080818503121561060357600080fd5b9392505050565b6000806020838503121561061d57600080fd5b823567ffffffffffffffff81111561063457600080fd5b61064085828601610507565b90969095509350505050565b81835281816020850137506000828201602090810191909152601f909101601f19169091010190565b8381526040602082015260006102ab60408301848661064c565b80356001600160a01b03811681146106a657600080fd5b919050565b803567ffffffffffffffff811681146106a657600080fd5b60008060008060008060a087890312156106dc57600080fd5b86359550602087013567ffffffffffffffff8111156106fa57600080fd5b61070689828a01610507565b909650945061071990506040880161068f565b925060608701356001600160e01b03198116811461073657600080fd5b9150610744608088016106ab565b90509295509295509295565b634e487b7160e01b600052604160045260246000fd5b634e487b7160e01b600052603260045260246000fd5b60008235607e1983360301811261079257600080fd5b9190910192915050565b6000808335601e198436030181126107b357600080fd5b83018035915067ffffffffffffffff8211156107ce57600080fd5b60200191503681900382131561054957600080fd5b60008235603e1983360301811261079257600080fd5b60208082526034908201527f426f6e7361695465737452656c61793a2063616c6c6261636b20617574686f726040820152731a5e985d1a5bdb8818da1958dac819985a5b195960621b606082015260800190565b60006020828403121561085f57600080fd5b6106038261068f565b60006020828403121561087a57600080fd5b610603826106ab565b8183823760009101908152919050565b634e487b7160e01b600052601160045260246000fd5b6000600182016108bb576108bb610893565b5060010190565b818103818111156108d5576108d5610893565b92915050565b600080858511156108eb57600080fd5b838611156108f857600080fd5b5050820193919092039150565b803560208310156108d557600019602084900360031b1b1692915050565b600060018060a01b03808a16835288602084015260c0604084015261094c60c08401888a61064c565b95166060830152506001600160e01b031992909216608083015267ffffffffffffffff1660a09091015294935050505056fea2646970667358221220ce7d2f4eecab88a18fe7b257367a3060dae7edbfe2395fd9e5bb1b278295c9d864736f6c63430008140033",
    "linkReferences": {}
  },
  "methodIdentifiers": {
    "callbackIsAuthorized(bytes32,bytes,(bytes,bytes32))": "59611e67",
    "invokeCallback(((bytes,bytes32),address,bytes,uint64))": "83a19d39",
    "invokeCallbacks(((bytes,bytes32),address,bytes,uint64)[])": "13ef1412",
    "parsePayload(bytes)": "df055cf1",
    "requestCallback(bytes32,bytes,address,bytes4,uint64)": "e80802a2"
  },
  "id": 29
}