{
  "abi": [
    {
      "inputs": [],
      "name": "CONTROL_ID_0",
      "outputs": [
        {
          "internalType": "uint256",
          "name": "",
          "type": "uint256"
        }
      ],
      "stateMutability": "view",
      "type": "function"
    },
    {
      "inputs": [],
      "name": "CONTROL_ID_1",
      "outputs": [
        {
          "internalType": "uint256",
          "name": "",
          "type": "uint256"
        }
      ],
      "stateMutability": "view",
      "type": "function"
    }
  ],
  "bytecode": {
    "object": "0x60b6610039600b82828239805160001a60731461002c57634e487b7160e01b600052600060045260246000fd5b30600052607381538281f3fe7300000000000000000000000000000000000000003014608060405260043610603d5760003560e01c8063168b114614604257806386039a3114606a575b600080fd5b60586f68e42d8b3ddc499f4e1799a767052ab381565b60405190815260200160405180910390f35b60586f3802684f1645e0a028585b0445d392318156fea26469706673582212203ee7ab2cf0321840956f205996024af806d6582bd10b82b6d83b0d067cf5625564736f6c63430008140033",
    "linkReferences": {}
  },
  "methodIdentifiers": {
    "CONTROL_ID_0()": "168b1146",
    "CONTROL_ID_1()": "86039a31"
  },
  "id": 33
}