{
  "abi": [
    {
      "inputs": [
        {
          "internalType": "uint256",
          "name": "control_id_0",
          "type": "uint256"
        },
        {
          "internalType": "uint256",
          "name": "control_id_1",
          "type": "uint256"
        }
      ],
      "stateMutability": "nonpayable",
      "type": "constructor"
    },
    {
      "inputs": [],
      "name": "CONTROL_ID_0",
      "outputs": [
        {
          "internalType": "uint256",
          "name": "",
          "type": "uint256"
        }
      ],
      "stateMutability": "view",
      "type": "function"
    },
    {
      "inputs": [],
      "name": "CONTROL_ID_1",
      "outputs": [
        {
          "internalType": "uint256",
          "name": "",
          "type": "uint256"
        }
      ],
      "stateMutability": "view",
      "type": "function"
    },
    {
      "inputs": [
        {
          "components": [
            {
              "internalType": "bytes",
              "name": "seal",
              "type": "bytes"
            },
            {
              "components": [
                {
                  "internalType": "bytes32",
                  "name": "preStateDigest",
                  "type": "bytes32"
                },
                {
                  "internalType": "bytes32",
                  "name": "postStateDigest",
                  "type": "bytes32"
                },
                {
                  "components": [
                    {
                      "internalType": "enum SystemExitCode",
                      "name": "system",
                      "type": "uint8"
                    },
                    {
                      "internalType": "uint8",
                      "name": "user",
                      "type": "uint8"
                    }
                  ],
                  "internalType": "struct ExitCode",
                  "name": "exitCode",
                  "type": "tuple"
                },
                {
                  "internalType": "bytes32",
                  "name": "input",
                  "type": "bytes32"
                },
                {
                  "internalType": "bytes32",
                  "name": "output",
                  "type": "bytes32"
                }
              ],
              "internalType": "struct ReceiptMetadata",
              "name": "meta",
              "type": "tuple"
            }
          ],
          "internalType": "struct Receipt",
          "name": "receipt",
          "type": "tuple"
        }
      ],
      "name": "verify",
      "outputs": [
        {
          "internalType": "bool",
          "name": "",
          "type": "bool"
        }
      ],
      "stateMutability": "view",
      "type": "function"
    },
    {
      "inputs": [
        {
          "internalType": "bytes",
          "name": "seal",
          "type": "bytes"
        },
        {
          "internalType": "bytes32",
          "name": "imageId",
          "type": "bytes32"
        },
        {
          "internalType": "bytes32",
          "name": "postStateDigest",
          "type": "bytes32"
        },
        {
          "internalType": "bytes",
          "name": "journal",
          "type": "bytes"
        }
      ],
      "name": "verify",
      "outputs": [
        {
          "internalType": "bool",
          "name": "",
          "type": "bool"
        }
      ],
      "stateMutability": "view",
      "type": "function"
    },
    {
      "inputs": [
        {
          "internalType": "bytes",
          "name": "seal",
          "type": "bytes"
        },
        {
          "internalType": "bytes32",
          "name": "imageId",
          "type": "bytes32"
        },
        {
          "internalType": "bytes32",
          "name": "postStateDigest",
          "type": "bytes32"
        },
        {
          "internalType": "bytes32",
          "name": "journalHash",
          "type": "bytes32"
        }
      ],
      "name": "verify",
      "outputs": [
        {
          "internalType": "bool",
          "name": "",
          "type": "bool"
        }
      ],
      "stateMutability": "view",
      "type": "function"
    },
    {
      "inputs": [
        {
          "internalType": "uint256[2]",
          "name": "_pA",
          "type": "uint256[2]"
        },
        {
          "internalType": "uint256[2][2]",
          "name": "_pB",
          "type": "uint256[2][2]"
        },
        {
          "internalType": "uint256[2]",
          "name": "_pC",
          "type": "uint256[2]"
        },
        {
          "internalType": "uint256[4]",
          "name": "_pubSignals",
          "type": "uint256[4]"
        }
      ],
      "name": "verifyProof",
      "outputs": [
        {
          "internalType": "bool",
          "name": "",
          "type": "bool"
        }
      ],
      "stateMutability": "view",
      "type": "function"
    }
  ],
  "bytecode": {
    "object": "0x60c060405234801561001057600080fd5b5060405161120c38038061120c83398101604081905261002f9161003d565b60809190915260a052610061565b6000806040838503121561005057600080fd5b505080516020909101519092909150565b60805160a0516111796100936000396000818161010201526101af0152600081816094015261018901526111796000f3fe608060405234801561001057600080fd5b50600436106100625760003560e01c806304b1843014610067578063168b11461461008f5780631a36ed75146100c45780635fe8c13b146100d75780636efef009146100ea57806386039a31146100fd575b600080fd5b61007a610075366004610c74565b610124565b60405190151581526020015b60405180910390f35b6100b67f000000000000000000000000000000000000000000000000000000000000000081565b604051908152602001610086565b61007a6100d2366004610d7a565b610246565b61007a6100e5366004610e44565b6102aa565b61007a6100f8366004610e9e565b610822565b6100b67f000000000000000000000000000000000000000000000000000000000000000081565b600080600061013e6101398560200151610890565b6109f3565b915091506000846000015180602001905181019061015c9190610f42565b9050306001600160a01b0316635fe8c13b82600001518360200151846040015160405180608001604052807f000000000000000000000000000000000000000000000000000000000000000081526020017f00000000000000000000000000000000000000000000000000000000000000008152602001898152602001888152506040518563ffffffff1660e01b81526004016101fc9493929190611005565b602060405180830381865afa158015610219573d6000803e3d6000fd5b505050506040513d601f19601f8201168201806040525081019061023d91906110ac565b95945050505050565b60006102a0868686600287876040516102609291906110d5565b602060405180830381855afa15801561027d573d6000803e3d6000fd5b5050506040513d601f19601f820116820180604052508101906100f891906110e5565b9695505050505050565b60006107bd565b7f30644e72e131a029b85045b68181585d97816a916871ca8d3c208c16d87cfd4781106102e2576000805260206000f35b50565b600060405183815284602082015285604082015260408160608360076107d05a03fa915081610318576000805260206000f35b825160408201526020830151606082015260408360808360066107d05a03fa91505080610349576000805260206000f35b5050505050565b7f0bae4e8249e16a7a60ccd0215fbe09b3850e8c18213acdb7f3e778e83909cb5585527f295a20c060882ebb89c0339f67c0659b89ab239bfa1239943d6e73841804e11c6020860152600060808601866103ed87357f1b88e5dd5422d4c00bda2bc18bc9ac5aba22b30f81d6f6f68620226b984ac2667f094bd9c4b3869496bcf8ab0f733cc6b64243b5d408d09b701b16e7ddd124b17e846102e5565b61043d60208801357f0f680c08630f998c5fac176e593c8c7ee279105baff2d93aeaed5a5add0ccfd67f2110dccdaf8ae02a1da45b139c06df34536f19e6826d66879420751a419c1a10846102e5565b61048d60408801357f25ee06c4f9429471049948199b2973a538d9baff5425b52ce978bc88547ddc237f0e65c1c9ab69133c2e7399aa172eb5a89ccb7e7ba844a10f87c8cc729a0b3b79846102e5565b6104dd60608801357f23fdad98b64dbcbc1866faf6f7da3d769c91699bb729c94271dc428811d95e517f0b7c7639a64cb5505831eb09e75d41862c63b1f3ec55fc432a60b989eeaad5a5846102e5565b50823581527f30644e72e131a029b85045b68181585d97816a916871ca8d3c208c16d87cfd4760208401357f30644e72e131a029b85045b68181585d97816a916871ca8d3c208c16d87cfd4703066020820152833560408201526020840135606082015260408401356080820152606084013560a08201527f2d4d9aa7e302d9df41749d5507949d05dbea33fbb16c643b22f599a2be6df2e260c08201527f14bedd503c37ceb061d8ec60209fe345ce89830a19230301f076caff004d192660e08201527f0967032fcbf776d1afc985f88877f182d38480a653f2decaa9794cbc3bf3060c6101008201527f0e187847ad4c798374d0d6732bf501847dd68bc0e071241e0213bc7fc13db7ab6101208201527f304cfbd1e08a704a99f5e847d93f8c3caafddec46b7a0d379da69a4d112346a76101408201527f1739c1b1a457a8c7313123d24d2f9192f896b7c63eea05a9d57f06547ad0cec8610160820152600087015161018082015260206000018701516101a08201527f198e9393920d483a7260bfb731fb5d25f1aa493335a9e71297e485b7aef312c26101c08201527f1800deef121f1e76426a00665e5c4479674322d4f75edadd46debd5cd992f6ed6101e08201527f090689d0585ff075ec9e99ad690c3395bc4b313370b38ef355acdadcd122975b6102008201527f12c85ea5db8c6deb4aab71808dcb408fe3d1e7690c43d37b4ce6cc0166fa7daa610220820152843561024082015260208501356102608201527f28f15945c0d350dc79c3fa9aeae56a7c6f70a38baaa48bbda19531ac056433796102808201527f14fc776a7ce28afa94649f38f373a61f64ac984c02eee7eb8a36e68ac69edfed6102a08201527f2b135a25ce834c21818185f0779ddaf65f831d6cb941d74a6e8a10ce1b0e05616102c08201527f2f41f6b9a171433f2a2eaa0442b6cc89785eddcbd269e2a4386dbd91f6253b846102e08201526020816103008360086107d05a03fa9051169695505050505050565b60405161038081016040526107d560008401356102b1565b6107e260208401356102b1565b6107ef60408401356102b1565b6107fc60608401356102b1565b61080960808401356102b1565b610816818486888a610350565b90508060005260206000f35b60008060405180604001604052808781526020016040518060a0016040528088815260200187815260200160405180604001604052806000600281111561086b5761086b6110fe565b815260006020918201819052918352820152604001869052905290506102a081610124565b60006002806040516108b9907072697363302e526563656970744d65746160781b815260110190565b602060405180830381855afa1580156108d6573d6000803e3d6000fd5b5050506040513d601f19601f820116820180604052508101906108f991906110e5565b60608401518451602086015160808701516040880151516018906002811115610924576109246110fe565b60408a810151602090810151825191820199909952908101969096526060860194909452608085019290925260a084015263ffffffff909116901b60e01b6001600160e01b03191660c082015260f89190911b6001600160f81b03191660c4820152600160fa1b60c882015260ca0160408051601f19818403018152908290526109ad91611114565b602060405180830381855afa1580156109ca573d6000803e3d6000fd5b5050506040513d601f19601f820116820180604052508101906109ed91906110e5565b92915050565b60008080610b408460008190506008817eff00ff00ff00ff00ff00ff00ff00ff00ff00ff00ff00ff00ff00ff00ff00ff16901b6008827fff00ff00ff00ff00ff00ff00ff00ff00ff00ff00ff00ff00ff00ff00ff00ff0016901c1790506010817dffff0000ffff0000ffff0000ffff0000ffff0000ffff0000ffff0000ffff16901b6010827fffff0000ffff0000ffff0000ffff0000ffff0000ffff0000ffff0000ffff000016901c1790506020817bffffffff00000000ffffffff00000000ffffffff00000000ffffffff16901b6020827fffffffff00000000ffffffff00000000ffffffff00000000ffffffff0000000016901c17905060408177ffffffffffffffff0000000000000000ffffffffffffffff16901b60408277ffffffffffffffff0000000000000000ffffffffffffffff1916901c179050608081901b608082901c179050919050565b6fffffffffffffffffffffffffffffffff81169560809190911c945092505050565b634e487b7160e01b600052604160045260246000fd5b6040805190810167ffffffffffffffff81118282101715610b9b57610b9b610b62565b60405290565b60405160a0810167ffffffffffffffff81118282101715610b9b57610b9b610b62565b6040516060810167ffffffffffffffff81118282101715610b9b57610b9b610b62565b600082601f830112610bf857600080fd5b813567ffffffffffffffff80821115610c1357610c13610b62565b604051601f8301601f19908116603f01168101908282118183101715610c3b57610c3b610b62565b81604052838152866020858801011115610c5457600080fd5b836020870160208301376000602085830101528094505050505092915050565b600060208284031215610c8657600080fd5b813567ffffffffffffffff80821115610c9e57600080fd5b9083019081850360e0811215610cb357600080fd5b610cbb610b78565b833583811115610cca57600080fd5b610cd688828701610be7565b82525060c0601f1983011215610ceb57600080fd5b610cf3610ba1565b925060208401358352604084013560208401526040605f1983011215610d1857600080fd5b610d20610b78565b9150606084013560038110610d3457600080fd5b8252608084013560ff81168114610d4a57600080fd5b602083810191909152604084019290925260a0840135606084015260c09093013560808301528201529392505050565b600080600080600060808688031215610d9257600080fd5b853567ffffffffffffffff80821115610daa57600080fd5b610db689838a01610be7565b965060208801359550604088013594506060880135915080821115610dda57600080fd5b818801915088601f830112610dee57600080fd5b813581811115610dfd57600080fd5b896020828501011115610e0f57600080fd5b9699959850939650602001949392505050565b80604081018310156109ed57600080fd5b80608081018310156109ed57600080fd5b6000806000806101808587031215610e5b57600080fd5b610e658686610e22565b9350610e748660408701610e33565b9250610e838660c08701610e22565b9150610e93866101008701610e33565b905092959194509250565b60008060008060808587031215610eb457600080fd5b843567ffffffffffffffff811115610ecb57600080fd5b610ed787828801610be7565b97602087013597506040870135966060013595509350505050565b600082601f830112610f0357600080fd5b610f0b610b78565b806040840185811115610f1d57600080fd5b845b81811015610f37578051845260209384019301610f1f565b509095945050505050565b60006101008284031215610f5557600080fd5b610f5d610bc4565b610f678484610ef2565b8152604084605f850112610f7a57600080fd5b610f82610b78565b8060c0860187811115610f9457600080fd5b8387015b81811015610fb957610faa8982610ef2565b84526020909301928401610f98565b50816020860152610fca8882610ef2565b84860152505050508091505092915050565b8060005b6002811015610fff578151845260209384019390910190600101610fe0565b50505050565b61018081016110148287610fdc565b60408083018660005b600280821061102c5750611067565b82518460005b83811015611050578251825260209283019290910190600101611032565b50505092840192506020919091019060010161101d565b5050505061107860c0830185610fdc565b61010082018360005b60048110156110a0578151835260209283019290910190600101611081565b50505095945050505050565b6000602082840312156110be57600080fd5b815180151581146110ce57600080fd5b9392505050565b8183823760009101908152919050565b6000602082840312156110f757600080fd5b5051919050565b634e487b7160e01b600052602160045260246000fd5b6000825160005b81811015611135576020818601810151858301520161111b565b50600092019182525091905056fea2646970667358221220481e5a419ea9c3a7819ec12441a32096bb9c25de7094d7b9314f1cfb8c981aab64736f6c63430008140033",
    "linkReferences": {}
  },
  "methodIdentifiers": {
    "CONTROL_ID_0()": "168b1146",
    "CONTROL_ID_1()": "86039a31",
    "verify((bytes,(bytes32,bytes32,(uint8,uint8),bytes32,bytes32)))": "04b18430",
    "verify(bytes,bytes32,bytes32,bytes)": "1a36ed75",
    "verify(bytes,bytes32,bytes32,bytes32)": "6efef009",
    "verifyProof(uint256[2],uint256[2][2],uint256[2],uint256[4])": "5fe8c13b"
  },
  "id": 33
}